{
  "_format": "hh-sol-artifact-1",
  "contractName": "PredictionMarket",
  "sourceName": "contracts/PredictionMarket.sol",
  "abi": [
    {
      "inputs": [],
      "stateMutability": "nonpayable",
      "type": "constructor"
    },
    {
      "inputs": [
        {
          "internalType": "address",
          "name": "",
          "type": "address"
        }
      ],
      "name": "bets",
      "outputs": [
        {
          "internalType": "uint256",
          "name": "amount",
          "type": "uint256"
        },
        {
          "internalType": "bool",
          "name": "choice",
          "type": "bool"
        },
        {
          "internalType": "bool",
          "name": "claimed",
          "type": "bool"
        }
      ],
      "stateMutability": "view",
      "type": "function"
    },
    {
      "inputs": [],
      "name": "claimReward",
      "outputs": [],
      "stateMutability": "nonpayable",
      "type": "function"
    },
    {
      "inputs": [
        {
          "internalType": "bool",
          "name": "_outcome",
          "type": "bool"
        }
      ],
      "name": "closeMarket",
      "outputs": [],
      "stateMutability": "nonpayable",
      "type": "function"
    },
    {
      "inputs": [],
      "name": "marketClosed",
      "outputs": [
        {
          "internalType": "bool",
          "name": "",
          "type": "bool"
        }
      ],
      "stateMutability": "view",
      "type": "function"
    },
    {
      "inputs": [],
      "name": "outcome",
      "outputs": [
        {
          "internalType": "bool",
          "name": "",
          "type": "bool"
        }
      ],
      "stateMutability": "view",
      "type": "function"
    },
    {
      "inputs": [],
      "name": "owner",
      "outputs": [
        {
          "internalType": "address",
          "name": "",
          "type": "address"
        }
      ],
      "stateMutability": "view",
      "type": "function"
    },
    {
      "inputs": [
        {
          "internalType": "bool",
          "name": "_choice",
          "type": "bool"
        }
      ],
      "name": "placeBet",
      "outputs": [],
      "stateMutability": "payable",
      "type": "function"
    },
    {
      "inputs": [],
      "name": "totalNoBets",
      "outputs": [
        {
          "internalType": "uint256",
          "name": "",
          "type": "uint256"
        }
      ],
      "stateMutability": "view",
      "type": "function"
    },
    {
      "inputs": [],
      "name": "totalYesBets",
      "outputs": [
        {
          "internalType": "uint256",
          "name": "",
          "type": "uint256"
        }
      ],
      "stateMutability": "view",
      "type": "function"
    }
  ],
  "bytecode": "0x6080604052348015600f57600080fd5b50336000806101000a81548173ffffffffffffffffffffffffffffffffffffffff021916908373ffffffffffffffffffffffffffffffffffffffff160217905550610f198061005f6000396000f3fe6080604052600436106100865760003560e01c8063566aa60b11610059578063566aa60b146101285780635c7bb3a21461015357806389a78f1a1461017c5780638da5cb5b146101bb578063b88a802f146101e657610086565b8063096a37781461008b57806327793f87146100a75780632a596899146100d257806348a5dec6146100fd575b600080fd5b6100a560048036038101906100a09190610864565b6101fd565b005b3480156100b357600080fd5b506100bc610402565b6040516100c991906108a0565b60405180910390f35b3480156100de57600080fd5b506100e7610415565b6040516100f491906108d4565b60405180910390f35b34801561010957600080fd5b5061011261041b565b60405161011f91906108a0565b60405180910390f35b34801561013457600080fd5b5061013d61042e565b60405161014a91906108d4565b60405180910390f35b34801561015f57600080fd5b5061017a60048036038101906101759190610864565b610434565b005b34801561018857600080fd5b506101a3600480360381019061019e919061094d565b61054a565b6040516101b29392919061097a565b60405180910390f35b3480156101c757600080fd5b506101d061058e565b6040516101dd91906109c0565b60405180910390f35b3480156101f257600080fd5b506101fb6105b2565b005b600060149054906101000a900460ff161561024d576040517f08c379a000000000000000000000000000000000000000000000000000000000815260040161024490610a38565b60405180910390fd5b60003411610290576040517f08c379a000000000000000000000000000000000000000000000000000000000815260040161028790610aca565b60405180910390fd5b6000600360003373ffffffffffffffffffffffffffffffffffffffff1673ffffffffffffffffffffffffffffffffffffffff1681526020019081526020016000206000015414610315576040517f08c379a000000000000000000000000000000000000000000000000000000000815260040161030c90610b36565b60405180910390fd5b6040518060600160405280348152602001821515815260200160001515815250600360003373ffffffffffffffffffffffffffffffffffffffff1673ffffffffffffffffffffffffffffffffffffffff1681526020019081526020016000206000820151816000015560208201518160010160006101000a81548160ff02191690831515021790555060408201518160010160016101000a81548160ff02191690831515021790555090505080156103e55734600160008282546103d99190610b85565b925050819055506103ff565b34600260008282546103f79190610b85565b925050819055505b50565b600060159054906101000a900460ff1681565b60015481565b600060149054906101000a900460ff1681565b60025481565b60008054906101000a900473ffffffffffffffffffffffffffffffffffffffff1673ffffffffffffffffffffffffffffffffffffffff163373ffffffffffffffffffffffffffffffffffffffff16146104c2576040517f08c379a00000000000000000000000000000000000000000000000000000000081526004016104b990610c05565b60405180910390fd5b600060149054906101000a900460ff1615610512576040517f08c379a000000000000000000000000000000000000000000000000000000000815260040161050990610c71565b60405180910390fd5b6001600060146101000a81548160ff02191690831515021790555080600060156101000a81548160ff02191690831515021790555050565b60036020528060005260406000206000915090508060000154908060010160009054906101000a900460ff16908060010160019054906101000a900460ff16905083565b60008054906101000a900473ffffffffffffffffffffffffffffffffffffffff1681565b600060149054906101000a900460ff16610601576040517f08c379a00000000000000000000000000000000000000000000000000000000081526004016105f890610cdd565b60405180910390fd5b6000600360003373ffffffffffffffffffffffffffffffffffffffff1673ffffffffffffffffffffffffffffffffffffffff1681526020019081526020016000209050600081600001541161068b576040517f08c379a000000000000000000000000000000000000000000000000000000000815260040161068290610d49565b60405180910390fd5b8060010160019054906101000a900460ff16156106dd576040517f08c379a00000000000000000000000000000000000000000000000000000000081526004016106d490610db5565b60405180910390fd5b600060159054906101000a900460ff1615158160010160009054906101000a900460ff16151514610743576040517f08c379a000000000000000000000000000000000000000000000000000000000815260040161073a90610e21565b60405180910390fd5b60008060159054906101000a900460ff161561078e57600154600254836000015461076e9190610e41565b6107789190610eb2565b82600001546107879190610b85565b90506107bf565b60025460015483600001546107a39190610e41565b6107ad9190610eb2565b82600001546107bc9190610b85565b90505b60018260010160016101000a81548160ff0219169083151502179055503373ffffffffffffffffffffffffffffffffffffffff166108fc829081150290604051600060405180830381858888f19350505050158015610822573d6000803e3d6000fd5b505050565b600080fd5b60008115159050919050565b6108418161082c565b811461084c57600080fd5b50565b60008135905061085e81610838565b92915050565b60006020828403121561087a57610879610827565b5b60006108888482850161084f565b91505092915050565b61089a8161082c565b82525050565b60006020820190506108b56000830184610891565b92915050565b6000819050919050565b6108ce816108bb565b82525050565b60006020820190506108e960008301846108c5565b92915050565b600073ffffffffffffffffffffffffffffffffffffffff82169050919050565b600061091a826108ef565b9050919050565b61092a8161090f565b811461093557600080fd5b50565b60008135905061094781610921565b92915050565b60006020828403121561096357610962610827565b5b600061097184828501610938565b91505092915050565b600060608201905061098f60008301866108c5565b61099c6020830185610891565b6109a96040830184610891565b949350505050565b6109ba8161090f565b82525050565b60006020820190506109d560008301846109b1565b92915050565b600082825260208201905092915050565b7f4d61726b657420697320636c6f73656400000000000000000000000000000000600082015250565b6000610a226010836109db565b9150610a2d826109ec565b602082019050919050565b60006020820190508181036000830152610a5181610a15565b9050919050565b7f42657420616d6f756e74206d7573742062652067726561746572207468616e2060008201527f7a65726f00000000000000000000000000000000000000000000000000000000602082015250565b6000610ab46024836109db565b9150610abf82610a58565b604082019050919050565b60006020820190508181036000830152610ae381610aa7565b9050919050565b7f596f75206861766520616c726561647920706c61636564206120626574000000600082015250565b6000610b20601d836109db565b9150610b2b82610aea565b602082019050919050565b60006020820190508181036000830152610b4f81610b13565b9050919050565b7f4e487b7100000000000000000000000000000000000000000000000000000000600052601160045260246000fd5b6000610b90826108bb565b9150610b9b836108bb565b9250828201905080821115610bb357610bb2610b56565b5b92915050565b7f4f6e6c79206f776e65722063616e20636c6f736520746865206d61726b657400600082015250565b6000610bef601f836109db565b9150610bfa82610bb9565b602082019050919050565b60006020820190508181036000830152610c1e81610be2565b9050919050565b7f4d61726b657420616c726561647920636c6f7365640000000000000000000000600082015250565b6000610c5b6015836109db565b9150610c6682610c25565b602082019050919050565b60006020820190508181036000830152610c8a81610c4e565b9050919050565b7f4d61726b6574206973206e6f7420636c6f736564207965740000000000000000600082015250565b6000610cc76018836109db565b9150610cd282610c91565b602082019050919050565b60006020820190508181036000830152610cf681610cba565b9050919050565b7f4e6f2062657420706c6163656400000000000000000000000000000000000000600082015250565b6000610d33600d836109db565b9150610d3e82610cfd565b602082019050919050565b60006020820190508181036000830152610d6281610d26565b9050919050565b7f52657761726420616c726561647920636c61696d656400000000000000000000600082015250565b6000610d9f6016836109db565b9150610daa82610d69565b602082019050919050565b60006020820190508181036000830152610dce81610d92565b9050919050565b7f596f75722070726564696374696f6e2077617320696e636f7272656374000000600082015250565b6000610e0b601d836109db565b9150610e1682610dd5565b602082019050919050565b60006020820190508181036000830152610e3a81610dfe565b9050919050565b6000610e4c826108bb565b9150610e57836108bb565b9250828202610e65816108bb565b91508282048414831517610e7c57610e7b610b56565b5b5092915050565b7f4e487b7100000000000000000000000000000000000000000000000000000000600052601260045260246000fd5b6000610ebd826108bb565b9150610ec8836108bb565b925082610ed857610ed7610e83565b5b82820490509291505056fea2646970667358221220462832940d032ddcaea701676c95b8411320b37c337db1600c832fbb90fd1aff64736f6c634300081b0033",
  "linkReferences": {},
  "deployedLinkReferences": {}
}